{
  "contractName": "Election",
  "abi": [
    {
      "inputs": [],
      "payable": false,
      "stateMutability": "nonpayable",
      "type": "constructor"
    },
    {
      "constant": true,
      "inputs": [
        {
          "internalType": "uint256",
          "name": "",
          "type": "uint256"
        }
      ],
      "name": "candidates",
      "outputs": [
        {
          "internalType": "uint256",
          "name": "id",
          "type": "uint256"
        },
        {
          "internalType": "string",
          "name": "namel",
          "type": "string"
        },
        {
          "internalType": "uint256",
          "name": "voteCount",
          "type": "uint256"
        }
      ],
      "payable": false,
      "stateMutability": "view",
      "type": "function"
    },
    {
      "constant": true,
      "inputs": [],
      "name": "candidatesCount",
      "outputs": [
        {
          "internalType": "uint256",
          "name": "",
          "type": "uint256"
        }
      ],
      "payable": false,
      "stateMutability": "view",
      "type": "function"
    },
    {
      "constant": true,
      "inputs": [
        {
          "internalType": "address",
          "name": "",
          "type": "address"
        }
      ],
      "name": "voters",
      "outputs": [
        {
          "internalType": "bool",
          "name": "",
          "type": "bool"
        }
      ],
      "payable": false,
      "stateMutability": "view",
      "type": "function"
    },
    {
      "constant": false,
      "inputs": [
        {
          "internalType": "string",
          "name": "_name",
          "type": "string"
        }
      ],
      "name": "addNewCandidate",
      "outputs": [],
      "payable": false,
      "stateMutability": "nonpayable",
      "type": "function"
    },
    {
      "constant": false,
      "inputs": [
        {
          "internalType": "uint256",
          "name": "_candidateId",
          "type": "uint256"
        }
      ],
      "name": "vote",
      "outputs": [],
      "payable": false,
      "stateMutability": "nonpayable",
      "type": "function"
    }
  ],
  "bytecode": "0x608060405234801561001057600080fd5b5033600360006101000a81548173ffffffffffffffffffffffffffffffffffffffff021916908373ffffffffffffffffffffffffffffffffffffffff1602179055506100966040518060400160405280600581526020017f48656e72790000000000000000000000000000000000000000000000000000008152506100df60201b60201c565b6100da6040518060400160405280600481526020017f4b756c79000000000000000000000000000000000000000000000000000000008152506100df60201b60201c565b610200565b60026000815480929190600101919050555060405180606001604052806002548152602001828152602001600081525060016000600254815260200190815260200160002060008201518160000155602082015181600101908051906020019061014a92919061015b565b506040820151816002015590505050565b828054600181600116156101000203166002900490600052602060002090601f016020900481019282601f1061019c57805160ff19168380011785556101ca565b828001600101855582156101ca579182015b828111156101c95782518255916020019190600101906101ae565b5b5090506101d791906101db565b5090565b6101fd91905b808211156101f95760008160009055506001016101e1565b5090565b90565b6106098061020f6000396000f3fe608060405234801561001057600080fd5b50600436106100575760003560e01c80630121b93f1461005c5780632d307d601461008a5780632d35a8a2146101455780633477ee2e14610163578063a3ec138d14610218575b600080fd5b6100886004803603602081101561007257600080fd5b8101908080359060200190929190505050610274565b005b610143600480360360208110156100a057600080fd5b81019080803590602001906401000000008111156100bd57600080fd5b8201836020820111156100cf57600080fd5b803590602001918460018302840111640100000000831117156100f157600080fd5b91908080601f016020809104026020016040519081016040528093929190818152602001838380828437600081840152601f19601f820116905080830192505050505050509192919290505050610365565b005b61014d6103cb565b6040518082815260200191505060405180910390f35b61018f6004803603602081101561017957600080fd5b81019080803590602001909291905050506103d1565b6040518084815260200180602001838152602001828103825284818151815260200191508051906020019080838360005b838110156101db5780820151818401526020810190506101c0565b50505050905090810190601f1680156102085780820380516001836020036101000a031916815260200191505b5094505050505060405180910390f35b61025a6004803603602081101561022e57600080fd5b81019080803573ffffffffffffffffffffffffffffffffffffffff169060200190929190505050610493565b604051808215151515815260200191505060405180910390f35b6000803373ffffffffffffffffffffffffffffffffffffffff1673ffffffffffffffffffffffffffffffffffffffff16815260200190815260200160002060009054906101000a900460ff16156102ca57600080fd5b6000811180156102dc57506002548111155b6102e557600080fd5b60016000803373ffffffffffffffffffffffffffffffffffffffff1673ffffffffffffffffffffffffffffffffffffffff16815260200190815260200160002060006101000a81548160ff021916908315150217905550600160008281526020019081526020016000206002016000815480929190600101919050555050565b600360009054906101000a900473ffffffffffffffffffffffffffffffffffffffff1673ffffffffffffffffffffffffffffffffffffffff163373ffffffffffffffffffffffffffffffffffffffff16146103bf57600080fd5b6103c8816104b3565b50565b60025481565b6001602052806000526040600020600091509050806000015490806001018054600181600116156101000203166002900480601f0160208091040260200160405190810160405280929190818152602001828054600181600116156101000203166002900480156104835780601f1061045857610100808354040283529160200191610483565b820191906000526020600020905b81548152906001019060200180831161046657829003601f168201915b5050505050908060020154905083565b60006020528060005260406000206000915054906101000a900460ff1681565b60026000815480929190600101919050555060405180606001604052806002548152602001828152602001600081525060016000600254815260200190815260200160002060008201518160000155602082015181600101908051906020019061051e92919061052f565b506040820151816002015590505050565b828054600181600116156101000203166002900490600052602060002090601f016020900481019282601f1061057057805160ff191683800117855561059e565b8280016001018555821561059e579182015b8281111561059d578251825591602001919060010190610582565b5b5090506105ab91906105af565b5090565b6105d191905b808211156105cd5760008160009055506001016105b5565b5090565b9056fea265627a7a72315820687023cdf2c47a4c6a4cf8fa4241fd3f90b5a62a4ed313c73d7c660ab625846d64736f6c63430005100032",
  "source": "// SPDX-License-Identifier: MIT\npragma solidity >=0.4.22;\n\ncontract Election{\n    //Modle a Condidate\n    struct Condidate{\n        uint id;\n        string namel;\n        uint voteCount;\n    }\n    //stote candidte account that have voted\n    mapping(address => bool)public voters;\n    //store candidates\n    //Fetch candidate\n    mapping(uint=>Condidate)public candidates;\n    uint256 public candidatesCount;\n    address owner;\n    \n    //Constructor\n   constructor () public{\n    owner = msg.sender;\n    addCandidate(\"Henry\");\n    addCandidate(\"Kuly\");\n\n   }\n\n\nfunction addCandidate(string memory _name)private{\n    candidatesCount++;\n    candidates[candidatesCount]=Condidate(candidatesCount,_name,0);\n}\nmodifier onlyOwner() {\n    require(msg.sender == owner);\n    _;\n}\nfunction addNewCandidate(string memory _name) public onlyOwner{\n    addCandidate(_name);\n}\n\nfunction vote (uint _candidateId)public{\n    // require that they haven't voted before\n    require(!voters[msg.sender]);\n\n    // require a valid candidate\n    require(_candidateId > 0 && _candidateId <= candidatesCount);\n\n    //record that voter has voted\n    voters[msg.sender] = true;     \n\n    //update candidate vote count\n    candidates[_candidateId].voteCount ++;\n}\n}",
  "sourcePath": "/home/yossi-dabush/Code/ether_election_project/contracts/Election.sol",
  "compiler": {
    "name": "solc",
    "version": "0.5.16+commit.9c3226ce.Emscripten.clang"
  },
  "schemaVersion": "3.4.1",
  "updatedAt": "2021-05-13T08:44:40.204Z",
  "networkType": "ethereum",
  "devdoc": {
    "methods": {}
  },
  "userdoc": {
    "methods": {}
  }
}